{
  "_format": "hh-sol-artifact-1",
  "contractName": "slots",
  "sourceName": "contracts/slots.sol",
  "abi": [
    {
      "inputs": [],
      "stateMutability": "nonpayable",
      "type": "constructor"
    },
    {
      "stateMutability": "payable",
      "type": "fallback"
    },
    {
      "inputs": [
        {
          "internalType": "address",
          "name": "",
          "type": "address"
        }
      ],
      "name": "addressToAmountSpent",
      "outputs": [
        {
          "internalType": "uint256",
          "name": "",
          "type": "uint256"
        }
      ],
      "stateMutability": "view",
      "type": "function"
    },
    {
      "inputs": [],
      "name": "displayWeiInContract",
      "outputs": [
        {
          "internalType": "uint256",
          "name": "",
          "type": "uint256"
        }
      ],
      "stateMutability": "view",
      "type": "function"
    },
    {
      "inputs": [],
      "name": "fee",
      "outputs": [
        {
          "internalType": "uint256",
          "name": "",
          "type": "uint256"
        }
      ],
      "stateMutability": "view",
      "type": "function"
    },
    {
      "inputs": [],
      "name": "fund",
      "outputs": [],
      "stateMutability": "payable",
      "type": "function"
    },
    {
      "inputs": [
        {
          "internalType": "uint256",
          "name": "",
          "type": "uint256"
        }
      ],
      "name": "getGameInfo",
      "outputs": [
        {
          "internalType": "uint256",
          "name": "gameNumber",
          "type": "uint256"
        },
        {
          "internalType": "address payable",
          "name": "gameUserAddress",
          "type": "address"
        },
        {
          "internalType": "uint256",
          "name": "gameUserBet",
          "type": "uint256"
        },
        {
          "internalType": "string",
          "name": "gameStringResult",
          "type": "string"
        },
        {
          "internalType": "uint256",
          "name": "gameResult",
          "type": "uint256"
        }
      ],
      "stateMutability": "view",
      "type": "function"
    },
    {
      "inputs": [],
      "name": "owner",
      "outputs": [
        {
          "internalType": "address",
          "name": "",
          "type": "address"
        }
      ],
      "stateMutability": "view",
      "type": "function"
    },
    {
      "inputs": [],
      "name": "playSlot",
      "outputs": [],
      "stateMutability": "payable",
      "type": "function"
    },
    {
      "inputs": [],
      "name": "randomResult",
      "outputs": [
        {
          "internalType": "uint256",
          "name": "",
          "type": "uint256"
        }
      ],
      "stateMutability": "view",
      "type": "function"
    },
    {
      "inputs": [
        {
          "internalType": "bytes32",
          "name": "requestId",
          "type": "bytes32"
        },
        {
          "internalType": "uint256",
          "name": "randomness",
          "type": "uint256"
        }
      ],
      "name": "rawFulfillRandomness",
      "outputs": [],
      "stateMutability": "nonpayable",
      "type": "function"
    },
    {
      "inputs": [],
      "name": "result",
      "outputs": [
        {
          "internalType": "string",
          "name": "",
          "type": "string"
        }
      ],
      "stateMutability": "view",
      "type": "function"
    },
    {
      "stateMutability": "payable",
      "type": "receive"
    }
  ],
  "bytecode": "0x60c060405234801561001057600080fd5b5073b3dccb4cf7a26f6cf6b120cf5a73875b7bbc655b7301be23585060835e02b77ef475b0cc51aa1e07098173ffffffffffffffffffffffffffffffffffffffff1660a08173ffffffffffffffffffffffffffffffffffffffff1660601b815250508073ffffffffffffffffffffffffffffffffffffffff1660808173ffffffffffffffffffffffffffffffffffffffff1660601b8152505050507f2ed0feb3e7fd2022120aa84fab1945545a9f2ffc9076fd6156fa96eaff4c131160001b60018190555067016345785d8a00006002819055506000600881905550600260078190555033600960006101000a81548173ffffffffffffffffffffffffffffffffffffffff021916908373ffffffffffffffffffffffffffffffffffffffff16021790555060805160601c60a05160601c61124a610163600039806106c65280610e57525080610e1b525061124a6000f3fe6080604052600436106100955760003560e01c8063b60d428811610059578063b60d42881461043d578063ddca3f4314610447578063dfd5cc5914610472578063f317f7201461049d578063fca5d21f1461050257610142565b806342619f66146101ea57806347e1d5501461021557806365372147146103115780638da5cb5b146103a157806394985ddd146103f857610142565b36610142573373ffffffffffffffffffffffffffffffffffffffff16600960009054906101000a900473ffffffffffffffffffffffffffffffffffffffff1673ffffffffffffffffffffffffffffffffffffffff1614610140576040517f08c379a00000000000000000000000000000000000000000000000000000000081526004018080602001828103825260228152602001806111f36022913960400191505060405180910390fd5b005b3373ffffffffffffffffffffffffffffffffffffffff16600960009054906101000a900473ffffffffffffffffffffffffffffffffffffffff1673ffffffffffffffffffffffffffffffffffffffff16146101e8576040517f08c379a00000000000000000000000000000000000000000000000000000000081526004018080602001828103825260228152602001806111f36022913960400191505060405180910390fd5b005b3480156101f657600080fd5b506101ff61050c565b6040518082815260200191505060405180910390f35b34801561022157600080fd5b5061024e6004803603602081101561023857600080fd5b8101908080359060200190929190505050610512565b604051808681526020018573ffffffffffffffffffffffffffffffffffffffff1673ffffffffffffffffffffffffffffffffffffffff16815260200184815260200180602001838152602001828103825284818151815260200191508051906020019080838360005b838110156102d25780820151818401526020810190506102b7565b50505050905090810190601f1680156102ff5780820380516001836020036101000a031916815260200191505b50965050505050505060405180910390f35b34801561031d57600080fd5b50610326610600565b6040518080602001828103825283818151815260200191508051906020019080838360005b8381101561036657808201518184015260208101905061034b565b50505050905090810190601f1680156103935780820380516001836020036101000a031916815260200191505b509250505060405180910390f35b3480156103ad57600080fd5b506103b661069e565b604051808273ffffffffffffffffffffffffffffffffffffffff1673ffffffffffffffffffffffffffffffffffffffff16815260200191505060405180910390f35b34801561040457600080fd5b5061043b6004803603604081101561041b57600080fd5b8101908080359060200190929190803590602001909291905050506106c4565b005b610445610793565b005b34801561045357600080fd5b5061045c61083b565b6040518082815260200191505060405180910390f35b34801561047e57600080fd5b50610487610841565b6040518082815260200191505060405180910390f35b3480156104a957600080fd5b506104ec600480360360208110156104c057600080fd5b81019080803573ffffffffffffffffffffffffffffffffffffffff169060200190929190505050610851565b6040518082815260200191505060405180910390f35b61050a610869565b005b60035481565b600a6020528060005260406000206000915090508060000154908060010160009054906101000a900473ffffffffffffffffffffffffffffffffffffffff1690806002015490806003018054600181600116156101000203166002900480601f0160208091040260200160405190810160405280929190818152602001828054600181600116156101000203166002900480156105f05780601f106105c5576101008083540402835291602001916105f0565b820191906000526020600020905b8154815290600101906020018083116105d357829003601f168201915b5050505050908060040154905085565b60048054600181600116156101000203166002900480601f0160208091040260200160405190810160405280929190818152602001828054600181600116156101000203166002900480156106965780601f1061066b57610100808354040283529160200191610696565b820191906000526020600020905b81548152906001019060200180831161067957829003601f168201915b505050505081565b600960009054906101000a900473ffffffffffffffffffffffffffffffffffffffff1681565b7f000000000000000000000000000000000000000000000000000000000000000073ffffffffffffffffffffffffffffffffffffffff163373ffffffffffffffffffffffffffffffffffffffff1614610785576040517f08c379a000000000000000000000000000000000000000000000000000000000815260040180806020018281038252601f8152602001807f4f6e6c7920565246436f6f7264696e61746f722063616e2066756c66696c6c0081525060200191505060405180910390fd5b61078f8282610987565b5050565b3373ffffffffffffffffffffffffffffffffffffffff16600960009054906101000a900473ffffffffffffffffffffffffffffffffffffffff1673ffffffffffffffffffffffffffffffffffffffff1614610839576040517f08c379a00000000000000000000000000000000000000000000000000000000081526004018080602001828103825260228152602001806111f36022913960400191505060405180910390fd5b565b60025481565b6000804790508090508091505090565b600b6020528060005260406000206000915090505481565b600860008154809291906001019190505550600047905033600560006101000a81548173ffffffffffffffffffffffffffffffffffffffff021916908373ffffffffffffffffffffffffffffffffffffffff1602179055503460068190555060065460075402811015610927576040517f08c379a00000000000000000000000000000000000000000000000000000000081526004018080602001828103825260328152602001806111c16032913960400191505060405180910390fd5b60006003819055506040518060400160405280601881526020017f57616974696e6720666f7220436861696e4c696e6b2e2e2e00000000000000008152506004908051906020019061097a9291906110d6565b506109836109c3565b5050565b6109ae60016109a06004846109d890919063ffffffff16565b610a6290919063ffffffff16565b6003819055506109bf600354610aea565b5050565b60006109d3600154600254610e17565b905090565b600080821415610a50576040517f08c379a00000000000000000000000000000000000000000000000000000000081526004018080602001828103825260188152602001807f536166654d6174683a206d6f64756c6f206279207a65726f000000000000000081525060200191505060405180910390fd5b818381610a5957fe5b06905092915050565b600080828401905083811015610ae0576040517f08c379a000000000000000000000000000000000000000000000000000000000815260040180806020018281038252601b8152602001807f536166654d6174683a206164646974696f6e206f766572666c6f77000000000081525060200191505060405180910390fd5b8091505092915050565b600654600b6000600560009054906101000a900473ffffffffffffffffffffffffffffffffffffffff1673ffffffffffffffffffffffffffffffffffffffff1673ffffffffffffffffffffffffffffffffffffffff168152602001908152602001600020600082825401925050819055506001811415610c2457600560009054906101000a900473ffffffffffffffffffffffffffffffffffffffff1673ffffffffffffffffffffffffffffffffffffffff166108fc600654600754029081150290604051600060405180830381858888f19350505050158015610bd2573d6000803e3d6000fd5b506040518060400160405280600781526020017f57696e6e6572210000000000000000000000000000000000000000000000000081525060049080519060200190610c1e9291906110d6565b50610c71565b6040518060400160405280600681526020017f4c6f73657221000000000000000000000000000000000000000000000000000081525060049080519060200190610c6f9291906110d6565b505b610c79611156565b6040518060a001604052806008548152602001600560009054906101000a900473ffffffffffffffffffffffffffffffffffffffff1673ffffffffffffffffffffffffffffffffffffffff168152602001600654815260200160048054600181600116156101000203166002900480601f016020809104026020016040519081016040528092919081815260200182805460018160011615610100020316600290048015610d685780601f10610d3d57610100808354040283529160200191610d68565b820191906000526020600020905b815481529060010190602001808311610d4b57829003601f168201915b5050505050815260200183815250905080600a600060085481526020019081526020016000206000820151816000015560208201518160010160006101000a81548173ffffffffffffffffffffffffffffffffffffffff021916908373ffffffffffffffffffffffffffffffffffffffff160217905550604082015181600201556060820151816003019080519060200190610e059291906110d6565b50608082015181600401559050505050565b60007f000000000000000000000000000000000000000000000000000000000000000073ffffffffffffffffffffffffffffffffffffffff16634000aea07f00000000000000000000000000000000000000000000000000000000000000008486600060405160200180838152602001828152602001925050506040516020818303038152906040526040518463ffffffff1660e01b8152600401808473ffffffffffffffffffffffffffffffffffffffff1673ffffffffffffffffffffffffffffffffffffffff16815260200183815260200180602001828103825283818151815260200191508051906020019080838360005b83811015610f27578082015181840152602081019050610f0c565b50505050905090810190601f168015610f545780820380516001836020036101000a031916815260200191505b50945050505050602060405180830381600087803b158015610f7557600080fd5b505af1158015610f89573d6000803e3d6000fd5b505050506040513d6020811015610f9f57600080fd5b8101908080519060200190929190505050506000610fd28460003060008089815260200190815260200160002054611023565b9050610ffa600160008087815260200190815260200160002054610a6290919063ffffffff16565b6000808681526020019081526020016000208190555061101a848261109d565b91505092915050565b600084848484604051602001808581526020018481526020018373ffffffffffffffffffffffffffffffffffffffff1673ffffffffffffffffffffffffffffffffffffffff1681526020018281526020019450505050506040516020818303038152906040528051906020012060001c9050949350505050565b60008282604051602001808381526020018281526020019250505060405160208183030381529060405280519060200120905092915050565b828054600181600116156101000203166002900490600052602060002090601f016020900481019282601f1061111757805160ff1916838001178555611145565b82800160010185558215611145579182015b82811115611144578251825591602001919060010190611129565b5b509050611152919061119b565b5090565b6040518060a0016040528060008152602001600073ffffffffffffffffffffffffffffffffffffffff1681526020016000815260200160608152602001600081525090565b6111bd91905b808211156111b95760008160009055506001016111a1565b5090565b9056fe4e6f7420656e6f75676820457468657220746f20706179206f75742e20526576657274696e67207472616e73636174696f6e4f6e6c79206f776e6572206f6620636f6e74726163742063616e2066756e64206974a26469706673582212201bcfb7de4596ad323f6a2bb24a337582979742d86f5a218ecdf41f8e5c88f66a64736f6c63430006060033",
  "linkReferences": {},
  "deployedLinkReferences": {}
}